:020000040000fa
:080000000002040000000000f2
:020000040000fa
:040008009003000061
:020000040000fa
:04000c00c802000026
:020000040000fa
:040010000a030000df
:020000040000fa
:04001400e8020000fe
:020000040000fa
:040018002a030000b7
:020000040000fa
:04001c00900300004d
:020000040000fa
:040020009003000049
:020000040000fa
:040024009003000045
:020000040000fa
:040028009003000041
:020000040000fa
:04002c00900300003d
:020000040000fa
:040030009003000039
:020000040000fa
:040034004a0300007b
:020000040000fa
:040038009003000031
:020000040000fa
:04003c00900300002d
:020000040000fa
:040040009003000029
:020000040000fa
:040044009003000025
:020000040000fa
:040048009003000021
:020000040000fa
:04004c00900300001d
:020000040000fa
:040050009003000019
:020000040000fa
:040054009003000015
:020000040000fa
:040058009003000011
:020000040000fa
:04005c00900300000d
:020000040000fa
:040060009003000009
:020000040000fa
:040064009003000005
:020000040000fa
:040068009003000001
:020000040000fa
:04006c0090030000fd
:020000040000fa
:0400700090030000f9
:020000040000fa
:0400740090030000f5
:020000040000fa
:0400780090030000f1
:020000040000fa
:04007c0090030000ed
:020000040000fa
:0400800090030000e9
:020000040000fa
:0400840090030000e5
:020000040000fa
:0400880090030000e1
:020000040000fa
:04008c0090030000dd
:020000040000fa
:0400900090030000d9
:020000040000fa
:0400940090030000d5
:020000040000fa
:0400980090030000d1
:020000040000fa
:04009c0090030000cd
:020000040000fa
:0400a00090030000c9
:020000040000fa
:0400a40090030000c5
:020000040000fa
:0400a80090030000c1
:020000040000fa
:0400ac0090030000bd
:020000040000fa
:0400b00090030000b9
:020000040000fa
:0400b40090030000b5
:020000040000fa
:0400b80090030000b1
:020000040000fa
:0400bc0090030000ad
:020000040000fa
:0400c00090030000a9
:020000040000fa
:0400c40090030000a5
:020000040000fa
:0400c80090030000a1
:020000040000fa
:0400cc00900300009d
:020000040000fa
:0400d0009003000099
:020000040000fa
:0400d4009003000095
:020000040000fa
:0400d8009003000091
:020000040000fa
:0400dc00900300008d
:020000040000fa
:0400e0009003000089
:020000040000fa
:0400e4009003000085
:020000040000fa
:0400e8009003000081
:020000040000fa
:0400ec00900300007d
:020000040000fa
:0400f0009003000079
:020000040000fa
:0400f4009003000075
:020000040000fa
:0400f8009003000071
:020000040000fa
:0400fc00900300006d
:020000040000fa
:040100009003000068
:020000040000fa
:040104009003000064
:020000040000fa
:040108009003000060
:020000040000fa
:04010c00900300005c
:020000040000fa
:040110009003000058
:020000040000fa
:040114009003000054
:020000040000fa
:040118009003000050
:020000040000fa
:04011c00900300004c
:020000040000fa
:040120009003000048
:020000040000fa
:040124009003000044
:020000040000fa
:040128009003000040
:020000040000fa
:04012c00900300003c
:020000040000fa
:040130009003000038
:020000040000fa
:040134009003000034
:020000040000fa
:04020800900300005f
:020000040000fa
:04020c00c802000024
:020000040000fa
:040210000a030000dd
:020000040000fa
:04021400e8020000fc
:020000040000fa
:040218002a030000b5
:020000040000fa
:04021c00900300004b
:020000040000fa
:040220009003000047
:020000040000fa
:040224009003000043
:020000040000fa
:04022800900300003f
:020000040000fa
:04022c00900300003b
:020000040000fa
:040230009003000037
:020000040000fa
:040234004a03000079
:020000040000fa
:04023800900300002f
:020000040000fa
:04023c00900300002b
:020000040000fa
:040240009003000027
:020000040000fa
:040244009003000023
:020000040000fa
:04024800900300001f
:020000040000fa
:04024c00900300001b
:020000040000fa
:040250009003000017
:020000040000fa
:040254009003000013
:020000040000fa
:04025800900300000f
:020000040000fa
:04025c00900300000b
:020000040000fa
:040260009003000007
:020000040000fa
:040264009003000003
:020000040000fa
:0402680090030000ff
:020000040000fa
:04026c0090030000fb
:020000040000fa
:0402700090030000f7
:020000040000fa
:0402740090030000f3
:020000040000fa
:0402780090030000ef
:020000040000fa
:04027c0090030000eb
:020000040000fa
:0402800090030000e7
:020000040000fa
:0402840090030000e3
:020000040000fa
:0402880090030000df
:020000040000fa
:04028c0090030000db
:020000040000fa
:0402900090030000d7
:020000040000fa
:0402940090030000d3
:020000040000fa
:0402980090030000cf
:020000040000fa
:04029c0090030000cb
:020000040000fa
:0402a00090030000c7
:020000040000fa
:0402a40090030000c3
:020000040000fa
:0402a80090030000bf
:020000040000fa
:0402ac0090030000bb
:020000040000fa
:0402b00090030000b7
:020000040000fa
:0402b40090030000b3
:020000040000fa
:0402b80090030000af
:020000040000fa
:0402bc0090030000ab
:020000040000fa
:0402c00090030000a7
:020000040000fa
:0402c40090030000a3
:020000040000fa
:0402c800900300009f
:020000040000fa
:0402cc00900300009b
:020000040000fa
:0402d0009003000097
:020000040000fa
:0402d4009003000093
:020000040000fa
:0402d800900300008f
:020000040000fa
:0402dc00900300008b
:020000040000fa
:0402e0009003000087
:020000040000fa
:0402e4009003000083
:020000040000fa
:0402e800900300007f
:020000040000fa
:0402ec00900300007b
:020000040000fa
:0402f0009003000077
:020000040000fa
:0402f4009003000073
:020000040000fa
:0402f800900300006f
:020000040000fa
:0402fc00900300006b
:020000040000fa
:040300009003000066
:020000040000fa
:040304009003000062
:020000040000fa
:04030800900300005e
:020000040000fa
:04030c00900300005a
:020000040000fa
:040310009003000056
:020000040000fa
:040314009003000052
:020000040000fa
:04031800900300004e
:020000040000fa
:04031c00900300004a
:020000040000fa
:040320009003000046
:020000040000fa
:040324009003000042
:020000040000fa
:04032800900300003e
:020000040000fa
:04032c00900300003a
:020000040000fa
:040330009003000036
:020000040000fa
:040334009003000032
:020000040000fa
:10040000cf8220000e7f22000e0188000000000035
:10041000000020000000e000020032000001200087
:100420002002880014000700bf0007000000e00061
:1004300003003a00604a200001002000020037005b
:100440000000200001002000810f70000100320038
:1004500014000700000020000000e000020032004d
:100460000000020000000000fc0302000000000089
:100470000040da000000fe004440a9000000200017
:100480000000e0000300320000002000a00188000e
:100490004440a800000006008a1f78008b1f7800e7
:1004a0000000060091018800800478000000eb0045
:1004b0001a003700e284440032a0b4009905ba0063
:1004c000e284440032a0b4009906ba00e2844400f9
:1004d00032a0b4000006eb00476fde00fd07b2005b
:1004e000636ce10003003a00ebff07000000eb0043
:1004f0000a003700606ce10004003a00005deb0088
:100500008b05e900fdff3e00040037006168e10053
:10051000010032000086eb000b00070019c7ba008b
:100520001905ba000e04e00003003a000a00e000da
:10053000e0ff3a0000000600fe07b2009e018800be
:100540008a047800f5ff3700395dba008b05e900b1
:100550000c003200295dba008b05e900080032006a
:100560000c00e00003003a00e284440032a0b40032
:10057000f5ff370019ddba008b05e900faff3a00f4
:100580008904e800e184440032a0b40000000600c1
:100590003600f800809fbe00829fbe00849fbe0090
:1005a000869fbe000000fa008020a9000000eb003a
:1005b000d80007000080fa004f03be004f02be00c3
:1005c0004f01be004f00be003600f900004006009b
:1005d0003600f800809fbe00829fbe00849fbe0050
:1005e000869fbe000000fa00d10007008040a900ed
:1005f00010002000c70007000080fa004f03be0073
:100600004f02be004f01be004f00be003600f90091
:10061000004006003600f800809fbe00829fbe00aa
:10062000849fbe00869fbe000000fa008060a90083
:1006300020002000b70007000080fa004f03be0032
:100640004f02be004f01be004f00be003600f90051
:10065000004006003600f800809fbe00829fbe006a
:10066000849fbe00869fbe000000fa008080a90023
:1006700030002000a70007000080fa004f03be00f2
:100680004f02be004f01be004f00be003600f90011
:100690000040060000a0fe003600f800849fbe0067
:1006a000869fbe003400f80004002000a4018800ea
:1006b0000000fa00e042a90060c7b3003c00070058
:1006c00090c7b3003a00070030c0b30038000700fd
:1006d00004c8bf000004e00005003a0020c0b300d9
:1006e0003300070010c0b30004e8b7000300370070
:1006f000b0c0b3002e0007000468ef00e042a8007d
:100700008460a9000080fa003400f9004f03be00a5
:100710004f02be003600f9000080fe0000400600d7
:0c0720000040da000000fe0000000500b0
:020000040000fa
:10072c000200fa00000f78001e00780060198800a3
:10073c00000e2000001988002223ef0010f0210089
:10074c002019880021e3a8000080fa0000000600b0
:10075c000200fa00000f78001e0078004019880093
:10076c002023a80000000000001980006100600038
:10077c000000e000fcff32002003a90000188000fc
:10078c000080fa00000006000000fa0000122000b1
:10079c001012880000002800001288000080fa0067
:1007ac00000006000200fa00004f78000000000074
:1007bc0000128000620060000000e000fcff3a00c4
:1007cc001e80fb0040128800000000000012800018
:1007dc00610060000000e000fcff3200401280006d
:1007ec00004078000080fa00000006000000fa00cb
:1007fc0069000700000328002008880030422f0001
:10080c00100888009460a8008460a900deff07002f
:10081c00de42a900e042a80000000000feff370005
:10082c000000fa00c422ef00ca22ef00d022ef0031
:10083c00d622ef00dc22ef00e222ef00e822ef00ec
:10084c00f06f2c00001688000080eb00301688003a
:10085c00e0012700601688000080eb0090168800ed
:10086c00f03f2000c0168800f01f2300f01688000f
:10087c00f03c2f00201788006820ef006a20ef0062
:10088c00c026ef00c626ef00cc26ef00d226ef00e4
:10089c00d826ef00de26ef00e426ef00000c200047
:1008ac00601988000080fa00000006000000fa00c1
:1008bc0000102300203a88004827ef007027ef0033
:1008cc007227ef007427ef00320020008007200011
:1008dc00a1092000337420008049780081497800f8
:1008ec00824978000001eb006004200071052000b3
:1008fc00237420008049780081497800824978006f
:10090c000080fa00000006000200fa00000f7800d8
:10091c009e007800514088000000fe000080fa0024
:10092c00000006000000fa00c0802000800778005c
:10093c0040822000000188000080fa0000000600c0
:020000040000fa
:10094c000608000004000000000000000c08000075
:10095c0020000000000000000a0800000200000057
:10096c0002000000ffff000000080000060000006d
:08097c00000000000000000073
:020000040000fa
:10098400809fbe00ec805700310078003040880022
:100994001100780008e8b7004f00be000000060010
:1009a4000000fa00a0ff0700c2ff070002000700d2
:1009b4000080fa00000006000000fa000080fa003f
:0409c4000000060029
:020000040000fa
:020000040002f8
:04aff8009dfb0000bd
:020000040000fa
:020000040002f8
:04affc007f3f000093
:00000001FF
