:020000040000fa
:080000000002040000000000f2
:020000040000fa
:040008006a03000087
:020000040000fa
:04000c00c802000026
:020000040000fa
:040010000a030000df
:020000040000fa
:04001400e8020000fe
:020000040000fa
:040018002a030000b7
:020000040000fa
:04001c006a03000073
:020000040000fa
:040020006a0300006f
:020000040000fa
:040024006a0300006b
:020000040000fa
:040028006a03000067
:020000040000fa
:04002c006a03000063
:020000040000fa
:040030006a0300005f
:020000040000fa
:040034006a0300005b
:020000040000fa
:040038006a03000057
:020000040000fa
:04003c006a03000053
:020000040000fa
:040040006a0300004f
:020000040000fa
:040044006a0300004b
:020000040000fa
:040048004a03000067
:020000040000fa
:04004c006a03000043
:020000040000fa
:040050006a0300003f
:020000040000fa
:040054006a0300003b
:020000040000fa
:040058006a03000037
:020000040000fa
:04005c006a03000033
:020000040000fa
:040060006a0300002f
:020000040000fa
:040064006a0300002b
:020000040000fa
:040068006a03000027
:020000040000fa
:04006c006a03000023
:020000040000fa
:040070006a0300001f
:020000040000fa
:040074006a0300001b
:020000040000fa
:040078006a03000017
:020000040000fa
:04007c006a03000013
:020000040000fa
:040080006a0300000f
:020000040000fa
:040084006a0300000b
:020000040000fa
:040088006a03000007
:020000040000fa
:04008c006a03000003
:020000040000fa
:040090006a030000ff
:020000040000fa
:040094006a030000fb
:020000040000fa
:040098006a030000f7
:020000040000fa
:04009c006a030000f3
:020000040000fa
:0400a0006a030000ef
:020000040000fa
:0400a4006a030000eb
:020000040000fa
:0400a8006a030000e7
:020000040000fa
:0400ac006a030000e3
:020000040000fa
:0400b0006a030000df
:020000040000fa
:0400b4006a030000db
:020000040000fa
:0400b8006a030000d7
:020000040000fa
:0400bc006a030000d3
:020000040000fa
:0400c0006a030000cf
:020000040000fa
:0400c4006a030000cb
:020000040000fa
:0400c8006a030000c7
:020000040000fa
:0400cc006a030000c3
:020000040000fa
:0400d0006a030000bf
:020000040000fa
:0400d4006a030000bb
:020000040000fa
:0400d8006a030000b7
:020000040000fa
:0400dc006a030000b3
:020000040000fa
:0400e0006a030000af
:020000040000fa
:0400e4006a030000ab
:020000040000fa
:0400e8006a030000a7
:020000040000fa
:0400ec006a030000a3
:020000040000fa
:0400f0006a0300009f
:020000040000fa
:0400f4006a0300009b
:020000040000fa
:0400f8006a03000097
:020000040000fa
:0400fc006a03000093
:020000040000fa
:040100006a0300008e
:020000040000fa
:040104006a0300008a
:020000040000fa
:040108006a03000086
:020000040000fa
:04010c006a03000082
:020000040000fa
:040110006a0300007e
:020000040000fa
:040114006a0300007a
:020000040000fa
:040118006a03000076
:020000040000fa
:04011c006a03000072
:020000040000fa
:040120006a0300006e
:020000040000fa
:040124006a0300006a
:020000040000fa
:040128006a03000066
:020000040000fa
:04012c006a03000062
:020000040000fa
:040130006a0300005e
:020000040000fa
:040134006a0300005a
:020000040000fa
:040208006a03000085
:020000040000fa
:04020c00c802000024
:020000040000fa
:040210000a030000dd
:020000040000fa
:04021400e8020000fc
:020000040000fa
:040218002a030000b5
:020000040000fa
:04021c006a03000071
:020000040000fa
:040220006a0300006d
:020000040000fa
:040224006a03000069
:020000040000fa
:040228006a03000065
:020000040000fa
:04022c006a03000061
:020000040000fa
:040230006a0300005d
:020000040000fa
:040234006a03000059
:020000040000fa
:040238006a03000055
:020000040000fa
:04023c006a03000051
:020000040000fa
:040240006a0300004d
:020000040000fa
:040244006a03000049
:020000040000fa
:040248004a03000065
:020000040000fa
:04024c006a03000041
:020000040000fa
:040250006a0300003d
:020000040000fa
:040254006a03000039
:020000040000fa
:040258006a03000035
:020000040000fa
:04025c006a03000031
:020000040000fa
:040260006a0300002d
:020000040000fa
:040264006a03000029
:020000040000fa
:040268006a03000025
:020000040000fa
:04026c006a03000021
:020000040000fa
:040270006a0300001d
:020000040000fa
:040274006a03000019
:020000040000fa
:040278006a03000015
:020000040000fa
:04027c006a03000011
:020000040000fa
:040280006a0300000d
:020000040000fa
:040284006a03000009
:020000040000fa
:040288006a03000005
:020000040000fa
:04028c006a03000001
:020000040000fa
:040290006a030000fd
:020000040000fa
:040294006a030000f9
:020000040000fa
:040298006a030000f5
:020000040000fa
:04029c006a030000f1
:020000040000fa
:0402a0006a030000ed
:020000040000fa
:0402a4006a030000e9
:020000040000fa
:0402a8006a030000e5
:020000040000fa
:0402ac006a030000e1
:020000040000fa
:0402b0006a030000dd
:020000040000fa
:0402b4006a030000d9
:020000040000fa
:0402b8006a030000d5
:020000040000fa
:0402bc006a030000d1
:020000040000fa
:0402c0006a030000cd
:020000040000fa
:0402c4006a030000c9
:020000040000fa
:0402c8006a030000c5
:020000040000fa
:0402cc006a030000c1
:020000040000fa
:0402d0006a030000bd
:020000040000fa
:0402d4006a030000b9
:020000040000fa
:0402d8006a030000b5
:020000040000fa
:0402dc006a030000b1
:020000040000fa
:0402e0006a030000ad
:020000040000fa
:0402e4006a030000a9
:020000040000fa
:0402e8006a030000a5
:020000040000fa
:0402ec006a030000a1
:020000040000fa
:0402f0006a0300009d
:020000040000fa
:0402f4006a03000099
:020000040000fa
:0402f8006a03000095
:020000040000fa
:0402fc006a03000091
:020000040000fa
:040300006a0300008c
:020000040000fa
:040304006a03000088
:020000040000fa
:040308006a03000084
:020000040000fa
:04030c006a03000080
:020000040000fa
:040310006a0300007c
:020000040000fa
:040314006a03000078
:020000040000fa
:040318006a03000074
:020000040000fa
:04031c006a03000070
:020000040000fa
:040320006a0300006c
:020000040000fa
:040324006a03000068
:020000040000fa
:040328006a03000064
:020000040000fa
:04032c006a03000060
:020000040000fa
:040330006a0300005c
:020000040000fa
:040334006a03000058
:020000040000fa
:100400002f8320000e7f22000e01880000000000d4
:10041000000020000000e000020032000001200087
:100420002002880014000700ac0007000000e00074
:1004300003003a00204a200001002000020037009b
:100440000000200001002000810f70000100320038
:1004500014000700000020000000e000020032004d
:100460000000020000000000e203020000000000a3
:100470000040da000000fe004440a9000000200017
:100480000000e0000300320000002000a00188000e
:100490004440a800000006008a1f78008b1f7800e7
:1004a0000000060091018800800478000000eb0045
:1004b0001a003700e284440032a0b4009905ba0063
:1004c000e284440032a0b4009906ba00e2844400f9
:1004d00032a0b4000006eb00476fde00fd07b2005b
:1004e000636ce10003003a00ebff07000000eb0043
:1004f0000a003700606ce10004003a00005deb0088
:100500008b05e900fdff3e00040037006168e10053
:10051000010032000086eb000b00070019c7ba008b
:100520001905ba000e04e00003003a000a00e000da
:10053000e0ff3a0000000600fe07b2009e018800be
:100540008a047800f5ff3700395dba008b05e900b1
:100550000c003200295dba008b05e900080032006a
:100560000c00e00003003a00e284440032a0b40032
:10057000f5ff370019ddba008b05e900faff3a00f4
:100580008904e800e184440032a0b40000000600c1
:100590003600f800809fbe00829fbe00849fbe0090
:1005a000869fbe000000fa008020a9000000eb003a
:1005b000f60007000080fa004f03be004f02be00a5
:1005c0004f01be004f00be003600f900004006009b
:1005d0003600f800809fbe00829fbe00849fbe0050
:1005e000869fbe000000fa00ef0007008040a900cf
:1005f00010002000e50007000080fa004f03be0055
:100600004f02be004f01be004f00be003600f90091
:10061000004006003600f800809fbe00829fbe00aa
:10062000849fbe00869fbe000000fa008060a90083
:1006300020002000d50007000080fa004f03be0014
:100640004f02be004f01be004f00be003600f90051
:10065000004006003600f800809fbe00829fbe006a
:10066000849fbe00869fbe000000fa008080a90023
:1006700030002000c50007000080fa004f03be00d4
:100680004f02be004f01be004f00be003600f90011
:100690000040060000a0fe003400f800881f78002b
:1006a00008002000a80188004f0478000000fa002c
:1006b000304080004140800000007800000c88003d
:1006c0008500a9000080fa003400f9000080fe00d7
:1006d000004006000040da000000fe0000000500b7
:1006e000839f68000100e00002003d0060001000f0
:1006f000e08018000300e00002003d0060011100ee
:10070000e0811900050007004f00e00002003b00f7
:1007100060001000e0801800000006006022b800b1
:10072000060220000000d0008180d2000482d200a6
:100730008582d2000000a0000202520083825a008b
:10074000030031000202420083824a000000a1003f
:0c0750000603e900f3ff3a000000060079
:020000040000fa
:10075c000200fa00000f78001e0078006019880073
:10076c00000e2000001988002223ef0010f0210059
:10077c002019880021e3a8000080fa000000060080
:10078c000200fa00000f78001e0078004019880063
:10079c002023a80000000000001980006100600008
:1007ac000000e000fcff32002003a90000188000cc
:1007bc000080fa00000006000000fa008600070026
:1007cc0070ff2f00e2ff070000002800900888004f
:1007dc00f0182000700888008221ef008021ef00c3
:1007ec00e0002000200c88009500a8008500a900de
:1007fc0030002000e2ff0700cf80de0010408800b0
:10080c002140880010408000214080000219200007
:10081c000289b900020178006002b90084017800f5
:10082c0003014100031920000300b800010141003d
:10083c0082007800f23f200003002000a5ff070093
:10084c00304088004140880000000000e8ff37007d
:10085c000000fa00c422ef00ca22ef00d022ef0001
:10086c00d622ef00dc22ef00e222ef00e822ef00bc
:10087c00f06f2c00001688000080eb00301688000a
:10088c00e0012700601688000080eb0090168800bd
:10089c00f03f2000c0168800f01f2300f0168800df
:1008ac00f03c2f00201788006820ef006a20ef0032
:1008bc00c026ef00c626ef00cc26ef00d226ef00b4
:1008cc00d826ef00de26ef00e426ef00000c200017
:1008dc00601988000080fa00000006000000fa0091
:1008ec0000102300203a88004827ef007027ef0003
:1008fc007227ef007427ef003200200080072000e1
:10090c00a1092000337420008049780081497800c7
:10091c00824978000001eb00600420007105200082
:10092c00237420008049780081497800824978003e
:08093c000080fa000000060033
:020000040000fa
:100944000a08000004000000000000001208000073
:1009540020000000000000000e080000020000005b
:1009640002000000ffff0000000800000a00000071
:100974000000000010080000020000000200000057
:0809840001000000000000006a
:020000040000fa
:10098c000200fa00000f78009e0078007140880089
:10099c000000fe000080fa00000006000000fa00d3
:1009ac002081200080077800a082200000018800b0
:1009bc000080fa0000000600809fbe00ec8057000b
:1009cc003100780050408800110078000ce8b70026
:1009dc004f00be00000006000000fa009cff07005c
:1009ec00beff0700020007000080fa0000000600ae
:0c09fc000000fa000080fa000000060075
:020000040000fa
:020000040002f8
:04aff8009dfb0000bd
:020000040000fa
:020000040002f8
:04affc007f3f000093
:00000001FF
