:020000040000fa
:080000000002040000000000f2
:020000040000fa
:040008004a030000a7
:020000040000fa
:04000c00c802000026
:020000040000fa
:040010000a030000df
:020000040000fa
:04001400e8020000fe
:020000040000fa
:040018002a030000b7
:020000040000fa
:04001c004a03000093
:020000040000fa
:040020004a0300008f
:020000040000fa
:040024004a0300008b
:020000040000fa
:040028004a03000087
:020000040000fa
:04002c004a03000083
:020000040000fa
:040030004a0300007f
:020000040000fa
:040034004a0300007b
:020000040000fa
:040038004a03000077
:020000040000fa
:04003c004a03000073
:020000040000fa
:040040004a0300006f
:020000040000fa
:040044004a0300006b
:020000040000fa
:040048004a03000067
:020000040000fa
:04004c004a03000063
:020000040000fa
:040050004a0300005f
:020000040000fa
:040054004a0300005b
:020000040000fa
:040058004a03000057
:020000040000fa
:04005c004a03000053
:020000040000fa
:040060004a0300004f
:020000040000fa
:040064004a0300004b
:020000040000fa
:040068004a03000047
:020000040000fa
:04006c004a03000043
:020000040000fa
:040070004a0300003f
:020000040000fa
:040074004a0300003b
:020000040000fa
:040078004a03000037
:020000040000fa
:04007c004a03000033
:020000040000fa
:040080004a0300002f
:020000040000fa
:040084004a0300002b
:020000040000fa
:040088004a03000027
:020000040000fa
:04008c004a03000023
:020000040000fa
:040090004a0300001f
:020000040000fa
:040094004a0300001b
:020000040000fa
:040098004a03000017
:020000040000fa
:04009c004a03000013
:020000040000fa
:0400a0004a0300000f
:020000040000fa
:0400a4004a0300000b
:020000040000fa
:0400a8004a03000007
:020000040000fa
:0400ac004a03000003
:020000040000fa
:0400b0004a030000ff
:020000040000fa
:0400b4004a030000fb
:020000040000fa
:0400b8004a030000f7
:020000040000fa
:0400bc004a030000f3
:020000040000fa
:0400c0004a030000ef
:020000040000fa
:0400c4004a030000eb
:020000040000fa
:0400c8004a030000e7
:020000040000fa
:0400cc004a030000e3
:020000040000fa
:0400d0004a030000df
:020000040000fa
:0400d4004a030000db
:020000040000fa
:0400d8004a030000d7
:020000040000fa
:0400dc004a030000d3
:020000040000fa
:0400e0004a030000cf
:020000040000fa
:0400e4004a030000cb
:020000040000fa
:0400e8004a030000c7
:020000040000fa
:0400ec004a030000c3
:020000040000fa
:0400f0004a030000bf
:020000040000fa
:0400f4004a030000bb
:020000040000fa
:0400f8004a030000b7
:020000040000fa
:0400fc004a030000b3
:020000040000fa
:040100004a030000ae
:020000040000fa
:040104004a030000aa
:020000040000fa
:040108004a030000a6
:020000040000fa
:04010c004a030000a2
:020000040000fa
:040110004a0300009e
:020000040000fa
:040114004a0300009a
:020000040000fa
:040118004a03000096
:020000040000fa
:04011c004a03000092
:020000040000fa
:040120004a0300008e
:020000040000fa
:040124004a0300008a
:020000040000fa
:040128004a03000086
:020000040000fa
:04012c004a03000082
:020000040000fa
:040130004a0300007e
:020000040000fa
:040134004a0300007a
:020000040000fa
:040208004a030000a5
:020000040000fa
:04020c00c802000024
:020000040000fa
:040210000a030000dd
:020000040000fa
:04021400e8020000fc
:020000040000fa
:040218002a030000b5
:020000040000fa
:04021c004a03000091
:020000040000fa
:040220004a0300008d
:020000040000fa
:040224004a03000089
:020000040000fa
:040228004a03000085
:020000040000fa
:04022c004a03000081
:020000040000fa
:040230004a0300007d
:020000040000fa
:040234004a03000079
:020000040000fa
:040238004a03000075
:020000040000fa
:04023c004a03000071
:020000040000fa
:040240004a0300006d
:020000040000fa
:040244004a03000069
:020000040000fa
:040248004a03000065
:020000040000fa
:04024c004a03000061
:020000040000fa
:040250004a0300005d
:020000040000fa
:040254004a03000059
:020000040000fa
:040258004a03000055
:020000040000fa
:04025c004a03000051
:020000040000fa
:040260004a0300004d
:020000040000fa
:040264004a03000049
:020000040000fa
:040268004a03000045
:020000040000fa
:04026c004a03000041
:020000040000fa
:040270004a0300003d
:020000040000fa
:040274004a03000039
:020000040000fa
:040278004a03000035
:020000040000fa
:04027c004a03000031
:020000040000fa
:040280004a0300002d
:020000040000fa
:040284004a03000029
:020000040000fa
:040288004a03000025
:020000040000fa
:04028c004a03000021
:020000040000fa
:040290004a0300001d
:020000040000fa
:040294004a03000019
:020000040000fa
:040298004a03000015
:020000040000fa
:04029c004a03000011
:020000040000fa
:0402a0004a0300000d
:020000040000fa
:0402a4004a03000009
:020000040000fa
:0402a8004a03000005
:020000040000fa
:0402ac004a03000001
:020000040000fa
:0402b0004a030000fd
:020000040000fa
:0402b4004a030000f9
:020000040000fa
:0402b8004a030000f5
:020000040000fa
:0402bc004a030000f1
:020000040000fa
:0402c0004a030000ed
:020000040000fa
:0402c4004a030000e9
:020000040000fa
:0402c8004a030000e5
:020000040000fa
:0402cc004a030000e1
:020000040000fa
:0402d0004a030000dd
:020000040000fa
:0402d4004a030000d9
:020000040000fa
:0402d8004a030000d5
:020000040000fa
:0402dc004a030000d1
:020000040000fa
:0402e0004a030000cd
:020000040000fa
:0402e4004a030000c9
:020000040000fa
:0402e8004a030000c5
:020000040000fa
:0402ec004a030000c1
:020000040000fa
:0402f0004a030000bd
:020000040000fa
:0402f4004a030000b9
:020000040000fa
:0402f8004a030000b5
:020000040000fa
:0402fc004a030000b1
:020000040000fa
:040300004a030000ac
:020000040000fa
:040304004a030000a8
:020000040000fa
:040308004a030000a4
:020000040000fa
:04030c004a030000a0
:020000040000fa
:040310004a0300009c
:020000040000fa
:040314004a03000098
:020000040000fa
:040318004a03000094
:020000040000fa
:04031c004a03000090
:020000040000fa
:040320004a0300008c
:020000040000fa
:040324004a03000088
:020000040000fa
:040328004a03000084
:020000040000fa
:04032c004a03000080
:020000040000fa
:040330004a0300007c
:020000040000fa
:040334004a03000078
:020000040000fa
:100400002f8320000e7f22000e01880000000000d4
:10041000000020000000e000020032000001200087
:1004200020028800140007009c0007000000e00084
:1004300003003a004077200001002000020037004e
:100440000000200001002000810f70000100320038
:1004500014000700000020000000e000020032004d
:100460000000020000000000a605020000000000dd
:100470000040da000000fe004440a9000000200017
:100480000000e0000300320000002000a00188000e
:100490004440a800000006008a1f78008b1f7800e7
:1004a0000000060091018800800478000000eb0045
:1004b0001a003700e284440032a0b4009905ba0063
:1004c000e284440032a0b4009906ba00e2844400f9
:1004d00032a0b4000006eb00476fde00fd07b2005b
:1004e000636ce10003003a00ebff07000000eb0043
:1004f0000a003700606ce10004003a00005deb0088
:100500008b05e900fdff3e00040037006168e10053
:10051000010032000086eb000b00070019c7ba008b
:100520001905ba000e04e00003003a000a00e000da
:10053000e0ff3a0000000600fe07b2009e018800be
:100540008a047800f5ff3700395dba008b05e900b1
:100550000c003200295dba008b05e900080032006a
:100560000c00e00003003a00e284440032a0b40032
:10057000f5ff370019ddba008b05e900faff3a00f4
:100580008904e800e184440032a0b40000000600c1
:100590003600f800809fbe00829fbe00849fbe0090
:1005a000869fbe000000fa008020a9000000eb003a
:1005b0003f0207000080fa004f03be004f02be005a
:1005c0004f01be004f00be003600f900004006009b
:1005d0003600f800809fbe00829fbe00849fbe0050
:1005e000869fbe000000fa00380207008040a90084
:1005f000100020002e0207000080fa004f03be000a
:100600004f02be004f01be004f00be003600f90091
:10061000004006003600f800809fbe00829fbe00aa
:10062000849fbe00869fbe000000fa008060a90083
:10063000200020001e0207000080fa004f03be00c9
:100640004f02be004f01be004f00be003600f90051
:10065000004006003600f800809fbe00829fbe006a
:10066000849fbe00869fbe000000fa008080a90023
:10067000300020000e0207000080fa004f03be0089
:100680004f02be004f01be004f00be003600f90011
:10069000004006000040da000000fe0000000500f7
:1006a000839f68000100e00002003d006000100030
:1006b000e08018000300e00002003d00600111002e
:1006c000e0811900140007004f00e00002003b0029
:1006d00060001000e080180000000600811f780014
:1006e0000100e00002003d0060001000e080180002
:1006f0000300e00002003d0060011100e0811900ec
:10070000150007004f00e00002003b0060001000f1
:10071000e0801800000006006022b80006022000f9
:100720000000d0008180d2000482d2008582d200f5
:100730000000a0000202520083825a000300310030
:100740000202420083824a000000a1000603e90081
:10075000f3ff3a0000000600efff07000400be00b0
:04076000000006008f
:020000040000fa
:100764000000fa0000032800200888000021ef00a0
:100774000000000001088000f07c2000808f500001
:10078400fcff36003030280000308800f03f2000a5
:100794001030880010002000603088000426ef002c
:1007a40080032000403088000021ef00000000009a
:1007b40000088000e20f5000fdff3600c00020005a
:1007c400403088000021ef00000000000008800095
:1007d400e20f5000fdff360010002000403088007a
:1007e4000021ef000000000001088000d006200076
:1007f400808f5000fcff3600c0002000403088008d
:100804000021ef000000000000088000e20f50000b
:10081400fdff36000080fa00000006000400fa0024
:10082400100798000000000011308000000028002c
:10083400008060000000e000fbff3a001e00900012
:100844002030880040308000000f78000000000055
:100854001130800000002800008060000000e000eb
:10086400fbff3a0040308000004078000080fa002e
:10087400000006000400fa00000f780021479800e9
:10088400000000000000eb00e4ff07000004e000ab
:10089400fcff35000000000011308000000028003b
:1008a400008060000000e000fbff3a001e007800ba
:1008b400203088002e4090000000fb00403088006b
:1008c4000080fa00000006000400fa00008fbe0059
:1008d4001e00be00a2002000030020007eff0700cf
:1008e4000040780000e8b7001e00be00a20020000f
:1008f4000300200069ff0700008fbe001e00be0039
:10090400a20020000300200073ff070000407800cd
:1009140001e8b7001e00be00a20020000300200072
:100924005eff0700008fbe001e00be00a200200074
:100934000300200068ff07000040780002e8b700c9
:100944001e00be00a20020000300200053ff070089
:10095400008fbe000080fa00000006000800fa00c4
:10096400008fbe00220798003307980011c0b3001f
:100974000000eb00bfff070021c0b3000000eb0044
:10098400bcff07001e00be00cfff070002c8bf0067
:100994000043b0008040780010002000b5ff07003d
:1009a40001c8bf000043b000804078001000200060
:1009b400b0ff0700e1c2b30010002000adff070044
:1009c40000c8bf000043b000804078001000200041
:1009d400a8ff070001c2b30010002000a5ff070014
:1009e40031c4b30010002000a2ff070001ccb30003
:1009f4000000eb009fff07002e009000be00900057
:100a0400b1ff070001c8bf000043b0008040780078
:100a14001000200097ff070000c8bf000043b0008b
:100a2400804078001000200092ff070001c2b3004c
:100a3400100020008fff070061c4b30010002000e5
:100a44008cff07000080fa00000006000200fa0094
:100a5400000f78001e00780060198800000e200046
:100a6400001988002223ef0010f0210020198800cb
:100a740021e3a8000080fa00000006000200fa004a
:100a8400000f78001e007800401988002023a80079
:100a94000000000000198000610060000000e00018
:100aa400fcff32002003a900001880000080fa0037
:100ab400000006000200fa00000f78001e00780013
:100ac400c0118800800028008011880000402000a8
:100ad40090118800df82a900e182a8000080fa005a
:100ae400000006000200fa00004f78000000000039
:100af4009111800000202000008060000000e000d0
:100b0400fbff3a001e00fb00a01188001e40780085
:100b14000080fa00000006000000fa00e182a9004b
:100b24000000000090118000610060000000e000ff
:100b3400fcff3200e182a800b01180000040780080
:100b44000080fa00000006000e00fa00fb00070017
:100b540003ff070020022000d6ff0700d2c2a8002e
:100b64000003280020088800f0fc2f00b7ff0700ce
:100b740000f02f00001688000828ef000a28ef0074
:100b840040002000bdff0700000f78001e00780021
:100b9400101688001e007800cf80de0042ce2000b0
:100ba4000289b900020178006002b900840178006a
:100bb4000301410043ce20000300b80001014100bd
:100bc40082007800f23f200003002000b3fe0700fb
:100bd400401fb1000180b100100798002107980060
:100be4001e007800cf80de00424027000289b90051
:100bf400020178006002b900840178000301410019
:100c0400434027000300b80001014100820078003e
:100c1400f23f200003002000a0fe07000001be00f8
:100c2400c04a2f00f1ff2f000200400083804800db
:100c3400220320000300200098fe070030079800dc
:100c4400410798003e019000ce0190001e009000e4
:100c5400ae00900041ff0700a116800000042000b0
:100c6400008060000000e00048003a00404080003e
:100c74005140800061004000e0804800404088000e
:100c840051408800b0c6b30096ff070000c2b3000d
:100c940094ff0700d0c3b30092ff070000c2b30063
:100ca40090ff0700404080005140800006ff07008d
:100cb40042408000534080003006200001002000a4
:100cc400800f5100818f59000300340002c8bf0017
:100cd4000043b00083ff070042408000534080007f
:100ce4009000200001002000800f5100818f5900e6
:100cf4000300340001c8bf000043b00079ff0700bf
:100d040000c8bf000043b00076ff0700b0c3b300c3
:100d140074ff070000c2b30072ff070040c5b300b0
:100d240070ff070000c2b3006eff0700d0c3b3001a
:100d34006cff070000c2b3006aff07001e009000aa
:100d4400ae009000e0fe070002c8bf000043b00000
:100d540064ff070001c8bf000043b00061ff070043
:100d6400e0c2b3005fff070000c8bf000043b0004b
:100d74005cff070030c4b3005aff0700d0c0b300c3
:100d840058ff0700a0c0b30056ff0700a0af2f0014
:100d94000100200050079800610798000021ef002f
:100da40000000000000880006101b8005e009000af
:100db400ee009000800f5100818f5900f9ff35003b
:100dc4006fff37000000fa00c422ef00ca22ef00d0
:100dd400d022ef00d622ef00dc22ef00e222ef0067
:100de400e822ef00f06f2c00001688000080eb0072
:100df40030168800e0012700601688000080eb00b0
:100e040090168800f03f2000c0168800f01f2300d1
:100e1400f0168800f03c2f00201788006820ef00af
:100e24006a20ef00c026ef00c626ef00cc26ef00b4
:100e3400d226ef00d826ef00de26ef00e426ef00ee
:100e4400000c2000601988000080fa0000000600f1
:100e54000000fa0000102300203a88004827ef0021
:100e64007027ef007227ef007427ef003200200094
:100e740080072000a10920003374200080497800f5
:100e840081497800824978000001eb006004200069
:100e9400710520002374200080497800814978007e
:100ea400824978000080fa00000006000200fa007f
:100eb400000f78009e007800814088000000fe004a
:100ec4000080fa00000006000000fa0020812000e3
:100ed40080077800a0822000000188000080fa00ca
:040ee4000000060004
:020000040000fa
:100ee8000c080000040000000000000012080000c8
:100ef80020000000000000001008000002000000b0
:100f080002000000ffff0000000800000c000000c5
:080f18000000000000000000d1
:020000040000fa
:100f2000809fbe00ec805700310078006040880050
:100f3000110078000ee8b7004f00be000000060068
:100f40000000fa00a0ff0700c2ff07000200070030
:100f50000080fa00000006000000fa000080fa009d
:040f60000000060087
:020000040000fa
:020000040002f8
:04aff8009dfb0000bd
:020000040000fa
:020000040002f8
:04affc007f3f000093
:00000001FF
